:100000000C9492010C94BC010C94BC010C94BC01A6
:100010000C94BC010C94BC010C94BC010C94BC016C
:100020000C94BC010C947B040C947B040C947B0416
:100030000C94BC010C94BC010C94BC010C94BC014C
:100040000C94BC010C94BC010C94BC010C94BC013C
:100050000C94BC010C94BC010C94BC010C943104B4
:100060000C94BC010C94BC010C94BC010C94BC011C
:100070000C94BC010C94BC010C94BC010C94BC010C
:100080000C94BC010C94BC010C94BC010C94BC01FC
:100090000C948F0D0C94650D0C94BC010C94BC0158
:1000A0000C94BC010C94BC010C94BC010C94BC01DC
:1000B0000C94BC010C94BC010C94BC010C94BC01CC
:1000C0000C94BC010C94BC010C94BC010C94BC01BC
:1000D0000C94BC010C94BC010C943B0D0C94110DC0
:1000E0000C94BC0149024C023B023F0245028302D0
:1000F000500254025A025E02620268026C027002EE
:10010000830276027A027E02F00655093508550907
:10011000550955095509550915075509D306DC0632
:10012000E7065509550955095509F30655095509B5
:10013000180721072A0733073C07450755095509C2
:100140005509550948074D07540759075E076307C6
:100150006807550955096F07780781078A079307CC
:100160009C07A507AE07B707C007C907D207DB077B
:10017000E407ED07F607FF07080811081A08230827
:100180002C08550955094F0856085A0862086A088C
:1001900073089508760879087C08950855099C0825
:1001A000A908B208C808D708E008EE08B109D109C3
:1001B0009609C30A94090F0B9609830B110B260BA2
:1001C0009609D50B000C170C96099409510C960949
:1001D000880C340B3A0B400B460B4C0B570B620B45
:1001E0006D0B780B05A84CCDB2D44EB93836A902A8
:1001F0000C50B9918688083CA6AAAA2ABE00000025
:10020000803F00002100240027002A002D0030003C
:10021000330001010000040107010A01000022006F
:10022000250028002B002E003100340002010000C0
:10023000050108010B010000200023002600290011
:100240002C002F003200000100000301060109010B
:1002500005050505070508080808020202020A0A42
:100260000808040404040101010101010101030360
:10027000030303030303040707070C0C0C0C0C0C0B
:100280000C0C0202020206060606060606060B0B08
:100290000B0B0B0B0B0B0102102020080810204049
:1002A000102040800201020108040201010204083A
:1002B00010204080804020100804020180040201C8
:1002C0008040201008040201080402010102040811
:1002D00010204080010204081020408000000A0B1A
:1002E00002090C0D0E0807030401000000000000C5
:1002F00000000000000000000000000000000000FE
:1003000000000000000000001211100000000000BA
:1003100000000000000000000000000000000000DD
:100320000000E61711241FBECFEFD1E2DEBFCDBF24
:1003300012E0A0E0B2E0E6E6FBE300E00BBF02C0A3
:1003400007900D92AA33B107D9F726E0AAE3B2E0ED
:1003500001C01D92A931B207E1F711E0C2E9D1E075
:1003600004C02197FE010E946F1CC139D107C9F753
:100370000E94C0110C94B11D0C940000FC01538D1F
:10038000448D252F30E0842F90E0821B930B54176F
:1003900010F0CF96089501970895FC01918D828DFC
:1003A000981761F0828DDF01A80FB11D5D968C91C9
:1003B000928D9F5F9F73928F90E008958FEF9FEFD4
:1003C0000895FC01918D828D981731F0828DE80F90
:1003D000F11D858D90E008958FEF9FEF0895FC014A
:1003E000918D228D892F90E0805C9F4F821B910917
:1003F0008F739927089580E090E0892B41F080E089
:1004000090E0892B21F00E94000081111DC080E046
:1004100090E0892B21F00E94070D811118C080E027
:1004200090E0892B41F080E090E0892B21F00E9440
:10043000000081110FC080E090E0892B81F00E94C4
:10044000FD0C81110AC008950E940000E0CF0E94B7
:100450000000E5CF0E940000EECF0C94000008954C
:1004600090E0FC013197E231F10508F04CC0EE5804
:10047000FF4F0C946F1C809180008F7703C0809198
:1004800080008F7D80938000089580918000877F19
:10049000F9CF84B58F7702C084B58F7D84BD089570
:1004A0008091B0008F7703C08091B0008F7D8093E2
:1004B000B0000895809190008F7707C080919000E0
:1004C0008F7D03C080919000877F80939000089576
:1004D0008091A0008F7707C08091A0008F7D03C01E
:1004E0008091A000877F8093A000089580912001D3
:1004F0008F7707C0809120018F7D03C080912001FC
:10050000877F8093200108953FB7F894809162021D
:1005100090916302A0916402B091650226B5A89BF8
:1005200005C02F3F19F00196A11DB11D3FBFBA2F85
:10053000A92F982F8827820F911DA11DB11DBC01E5
:10054000CD0142E0660F771F881F991F4A95D1F7AA
:100550000895089580E090E00895FC01848DDF0106
:10056000A80FB11DA35ABF4F2C91848D90E0019626
:100570008F739927848FA689B7892C93A089B18915
:100580008C9180648C93938D848D981306C002881F
:10059000F389E02D80818F7D80830895EF92FF9213
:1005A0000F931F93CF93DF93EC0181E0888F9B8D96
:1005B0008C8D981305C0E889F989808185FD24C058
:1005C000F62E0B8D10E00F5F1F4F0F731127E02EDB
:1005D0008C8DE8120CC00FB607FCFACFE889F989B8
:1005E000808185FFF5CFCE010E94AD02F1CF8B8DCA
:1005F000FE01E80FF11DE35AFF4FF0820B8FEA89ED
:10060000FB898081806207C0EE89FF896083E88969
:10061000F98980818064808381E090E0DF91CF91CF
:100620001F910F91FF90EF900895CF93DF93EC010E
:10063000888D8823C9F0EA89FB89808185FD05C002
:10064000A889B9898C9186FD0FC00FB607FCF5CF3C
:10065000808185FFF2CFA889B9898C9185FFEDCF84
:10066000CE010E94AD02E7CFDF91CF910895CF93E5
:10067000DF93282F30E0F901E452FD4F8491F90116
:10068000EA56FD4FD491F901E05BFD4FC491CC23B4
:1006900091F081110E943002EC2FF0E0EE0FFF1F6D
:1006A000EA5CFD4FA591B491EC91ED2381E090E0DF
:1006B00021F480E002C080E090E0DF91CF910895C6
:1006C0001F93CF93DF93282F30E0F901E452FD4FC1
:1006D0008491F901EA56FD4FD491F901E05BFD4F99
:1006E000C491CC23C9F0162F81110E943002EC2F47
:1006F000F0E0EE0FFF1FE45EFD4FA591B4918FB7C0
:10070000F894111105C09C91ED2FE095E92302C0EA
:10071000EC91ED2BEC938FBFDF91CF911F9108955A
:10072000CF93DF9390E0FC01EA56FD4F2491FC014A
:10073000E05BFD4F8491882361F190E0880F991F61
:10074000FC01EE5FFD4FC591D491FC01E45EFD4FCD
:10075000A591B491611109C09FB7F8948881209543
:1007600082238883EC912E230BC0623061F49FB703
:10077000F8943881822F809583238883EC912E2BE7
:100780002C939FBF06C08FB7F894E8812E2B288347
:100790008FBFDF91CF910895863308F086539091F3
:1007A0007B00282F2870977F922B90937B00877077
:1007B000806480937C0080917A00806480937A00CA
:1007C00080917A0086FDFCCF80917800209179009D
:1007D00090E0922B08958F929F92AF92BF92CF920A
:1007E000DF92EF92FF926B017C010E9484024B0129
:1007F0005C01C114D104E104F104F1F00E9484020F
:10080000DC01CB0188199909AA09BB09883E9340EC
:10081000A105B10570F321E0C21AD108E108F10881
:1008200088EE880E83E0981EA11CB11CC114D1046F
:10083000E104F10419F7DDCFFF90EF90DF90CF9046
:10084000BF90AF909F908F9008952FB7F8946091CC
:100850005E0270915F0280916002909161022FBFF1
:1008600008951F920F920FB60F9211242F933F936A
:100870008F939F93AF93BF9380915E0290915F029D
:10088000A0916002B091610230915D0223E0230FDC
:100890002D3720F40196A11DB11D05C026E8230FB8
:1008A0000296A11DB11D20935D0280935E0290937C
:1008B0005F02A0936002B093610280916202909106
:1008C0006302A0916402B09165020196A11DB11D61
:1008D0008093620290936302A0936402B0936502D6
:1008E000BF91AF919F918F913F912F910F900FBE2C
:1008F0000F901F9018951F920F920FB60F92112410
:100900000F900FBE0F901F901895CF93DF93EC01BF
:100910000E9425046C837D838E839F836883798303
:100920008A839B83DF91CF9108950F931F93CF9379
:10093000DF93EC010E942504688379838A839B837B
:100940000C811D812E813F81DC01CB01801B910B2D
:10095000A20BB30BB7FF07C0B095A09590958195FA
:100960009F4FAF4FBF4F088519852A853B850817D4
:1009700019072A073B072CF4CE010E94850481E069
:1009800001C080E0DF91CF911F910F9108958F9268
:100990009F92AF92BF92CF92DF92EF92FF9281E44B
:1009A0000E94CC03BC01990F880B990B0E94A11ADD
:1009B00020E030E048E452E40E94951B20E030E063
:1009C00040E85AE30E94951B4B015C01C09057021E
:1009D000D0905802E0905902F0905A0220E030E0A6
:1009E00040E85DE3C701B6010E94951B9B01AC0185
:1009F000C701B6010E9480196B017C0125EE36EF1C
:100A00004CEF5FE3C501B4010E94951B9B01AC0153
:100A1000C701B6010E948119609357027093580272
:100A20008093590290935A0220E030E040E85DE361
:100A30000E94951BFF90EF90DF90CF90BF90AF90FA
:100A40009F908F9008958F929F92AF92BF92CF9276
:100A5000DF92EF92FF920F931F93CF93DF934C019E
:100A60005B016A01E90165E070E080E00E946C0EC4
:100A7000B70186E00E946C0EB80185E00E946C0E02
:100A8000B40181E00E946C0EB50182E00E946C0E00
:100A9000B60183E00E946C0EBE0184E00E946C0EE1
:100AA00086E0DF91CF911F910F91FF90EF90DF9043
:100AB000CF90BF90AF909F908F900C94D10D0F93DB
:100AC0001F93CF93DF93EC018B0165E070E080E032
:100AD0000E946C0EB80186E00E946C0EBE0185E09B
:100AE0000E946C0E84E0DF91CF911F910F910C94C6
:100AF000D10DEF92FF920F931F9383E090E09093BC
:100B000069028093680285E895E00E949504882335
:100B100011F1E12CF12C00E010E020E030E040E0A9
:100B200050E060E070E080E090E00E9423051092C9
:100B3000890210928802109287021092860281EC3C
:100B400095E00E94850485E895E01F910F91FF9044
:100B5000EF900C9485041F910F91FF90EF900895F2
:100B6000DC01ED91FC910190F081E02D09940F934F
:100B70001F93CF93DF9390912002992351F1D52FAA
:100B8000142F062FC82F61E070E087E294E00E94E6
:100B9000B0056C2F87E294E00E94CE02602F87E2BE
:100BA00094E00E94CE0261E00627C0276D2F87E205
:100BB00094E00E94CE02C127612F87E294E00E9458
:100BC000CE026C2F6D2787E294E00E94CE02109235
:100BD0002002DF91CF911F910F910895AF92BF92A4
:100BE000CF92DF92EF92FF920F931F93CF93DF93F9
:100BF00000D0CDB7DEB71092480210924902109291
:100C00004A0210924B0210924C0210924D0211E0D7
:100C100087E294E00E94EF01892B31F087E294E0B3
:100C20000E94E101079741F487E294E00E94E1010C
:100C3000079709F03AC307C087E294E00E94CD010C
:100C400010932002E5CF87E294E00E94EF0106971F
:100C50000CF42BC3DD24D394D092200287E294E0DD
:100C60000E94CD018C01C82E8093480287E294E057
:100C70000E94CD01382F809349020827192787E267
:100C800094E03A830E94CD01282F80934A020827DE
:100C9000192787E294E029830E94CD015C018093AB
:100CA0004B020827192787E294E00E94CD017C01BE
:100CB00080934C020827192787E294E00E94CD0117
:100CC00080934D0208271927112710933B020093A8
:100CD0003A0229813A8187E0C812E7C2D092200205
:100CE0001A2D00270E29363009F451C038F431305E
:100CF00009F4B2C2343009F488C2D7C23E3109F4D3
:100D0000B0C2303221F03A3009F0CFC238C02223CD
:100D1000C9F02130A1F56FEF7FEF81E00E946C0EEA
:100D200084E00E94D10D10934502009344026BE0D1
:100D300070E081E00E946C0E60914202709143026B
:100D400084E00FC06FEF7FEF81E00E946C0E84E0C3
:100D50000E94D10D109347020093460266E070E0B6
:100D600081E00E946C0EB80182E00E946C0E61E08E
:100D700070E083E00E946C0E82E00E94D10D8091B1
:100D80004A0290E090936F0280936E028EC2822F8F
:100D900090E0FC013F97E235F10508F086C2EC5780
:100DA000FF4F0C946F1C87E090E090936B02809350
:100DB0006A028EEF90E0C8C187E090E090936B02EA
:100DC00080936A028091540290915502BDC187E0E0
:100DD00090E090936B0280936A028DEF90E0B4C133
:100DE00081E090E05EC180910002882379F082E08A
:100DF00090E090936B0280936A0281E090E0909380
:100E0000670280936602109200024FC283E090E076
:100E100090936B0280936A0281E090E09093670266
:100E2000809366028093000240C20E9479053DC211
:100E300084E090E090936B0280936A028DE290E0F0
:100E400083C184E090E090936B0280936A0283ED0B
:100E50009FEF7AC184E090E090936B0280936A02E6
:100E60008AE590E071C184E090E090936B028093FA
:100E70006A0286EA9FEF68C184E090E090936B027B
:100E800080936A0284EB90E05FC185E090E056C1F8
:100E900060E070E080E090E01FC0609146027091D9
:100EA000470287E090E018C060E070E088E090E0E2
:100EB00013C060E070E089E090E00EC060E070E098
:100EC00085E090E009C060E070E08AE090E004C056
:100ED00060E070E084E090E00E94A111E6C186E04D
:100EE00090E090936B0280936A0289E190E02CC1BC
:100EF00086E090E090936B0280936A0282E390E038
:100F000023C186E090E090936B0280936A028BE4A9
:100F100090E01AC186E090E090936B0280936A02A1
:100F200084E690E011C186E090E090936B0280939C
:100F30006A0288EC90E008C186E090E090936B0232
:100F400080936A0284EF91E0FFC086E090E0909386
:100F50006B0280936A0287EE9FEFF6C086E090E016
:100F600090936B0280936A028EEC9FEFEDC086E057
:100F700090E090936B0280936A0285EB9FEFE4C050
:100F800086E090E090936B0280936A028CE99FEF79
:100F9000DBC086E090E090936B0280936A0288E366
:100FA0009FEFD2C086E090E090936B0280936A023C
:100FB0008CE09EEFC9C084E090E090936B02809338
:100FC0006A0286E090E0C0C084E090E090936B02FB
:100FD00080936A0287E090E0B7C084E090E090934D
:100FE0006B0280936A0288E090E0AEC084E090E0FB
:100FF00090936B0280936A0289E090E0A5C084E040
:1010000090E090936B0280936A028AE090E09CC02B
:1010100084E090E090936B0280936A028BE090E012
:1010200093C084E090E090936B0280936A028CE01E
:1010300090E08AC084E090E090936B0280936A0213
:101040008DE090E081C084E090E090936B0280930B
:101050006A028EE090E078C084E090E090936B02AA
:1010600080936A028FE090E06FC08091400290917F
:101070004102089690936B0280936A0280913E022F
:1010800090913F0244EB489F9001499F300D1124FD
:1010900080913C0290913D02820F931F55C084E0E5
:1010A00090E090936B0280936A024EC065E070E01E
:1010B00080E0F1C065E070E080E00E946C0E62E0CC
:1010C00070E0EDC065E070E080E00E946C0E61E0D1
:1010D00070E0E5C084E090E090936B0280936A0238
:1010E00085E090E031C081E090E021C084E090E0B4
:1010F0001EC083E090E01BC063E070E081E00E94CE
:101100006C0E60E070E082E00E946C0E61E070E0C6
:1011100083E00E946C0E82E00E94D10D60E070E0DE
:1011200081E00E946C0E84E0BEC082E090E090936B
:10113000430280934202B9C087E090E090936B0233
:1011400080936A0281E090E0909367028093660248
:10115000ACC080915002909151028B30910574F097
:101160000A9708C08091500290915102843B9105EA
:101170002CF40A96909351028093500265E070E03F
:1011800080E00E946C0E60915002709151020DC07F
:101190008AE590E0909351028093500265E070E000
:1011A00080E00E946C0E6AE570E085E079C0809175
:1011B0004E0290914F028B309105E4F00A9716C0D1
:1011C0008AE590E090934F0280934E0265E070E0D4
:1011D00080E00E946C0E6AE570E015C080914E02BE
:1011E00090914F02843B91052CF40A9690934F0204
:1011F00080934E0265E070E080E00E946C0E60918A
:101200004E0270914F0286E04BC0222319F021302C
:1012100031F04BC0109355020093540246C0B80100
:101220006536710510F064E670E080E090E00E94A1
:101230009F1A20E030E048E452E40E94801920E048
:1012400030E040E251E40E94951B0E94691A7093BD
:1012500053026093520229C010933D0200933C0256
:1012600024C0213049F018F0223059F01EC01093EC
:101270003F0200933E0219C01093410200934002C6
:1012800014C065E070E080E0012B29F40E946C0E30
:1012900065E070E004C00E946C0E64E070E082E0E3
:1012A0000E946C0E81E00E94D10D80912002882363
:1012B00009F450C38DEC95E00E949504882309F44D
:1012C00049C380912002882309F440C080916C02B8
:1012D00090916D028031974224F010926D0210922D
:1012E0006C020E9425046093D9057093DA058093FF
:1012F000DB059093DC0589ED95E00E949504882339
:1013000029F140916C0250916D02CA0101969093AF
:101310006D0280936C0260E08FE00E94B70589ED5A
:1013200095E00E94850402C0109256028DEC95E073
:101330000F900F90DF91CF911F910F91FF90EF9041
:10134000DF90CF90BF90AF900C948504E0916E0237
:10135000F0916F02E331F10548F7EA52FF4F0C9428
:101360006F1C80915602873008F0ECC2833008F081
:10137000EBC2813009F4E8C2823009F0E3C20E9476
:10138000C7040E94691ADB012EE130E00E94781C3C
:1013900025E530E040E050E00E942519A90160E019
:1013A00053C180915602833009F47DC028F4813006
:1013B00051F08230E1F1C6C2843009F497C0853023
:1013C00009F4C5C0BFC220E030E040E251E46091C2
:1013D00013027091140280911502909116020E94DE
:1013E000F71920E030E040E753E40E9480196B01D8
:1013F0007C0120E030E0A9010E94ED1987FD10C0BA
:1014000020E030E040E252E4C701B6010E94901BA8
:1014100018164CF0C701B6010E94701AAB0105C046
:1014200040E050E002C048E250E061E087C220E0C6
:1014300030E040E251E46091760270917702809151
:101440007802909179020E94F7199B01AC0160E04B
:1014500070E08AEF94E40E94801920E030E040E2DE
:1014600051E40E94F7196B017C0120E030E0A901F2
:101470000E94ED1987FD10C020E030E048E453E4FD
:10148000C701B6010E94901B18164CF0C701B601A7
:101490000E94701AAB0105C040E050E002C048EC69
:1014A00050E063E04BC260910F0270911002809196
:1014B0001102909112020E94691A9B0177FF04C0E9
:1014C00022273327261B370BB901330F880B990BC3
:1014D0000E94A11A20E030E04AEF53E40E94F7197D
:1014E0000E94701AAB0160E08BE029C260910F028C
:1014F0007091100280911102909112020E94691A5B
:101500009B0177FF04C022273327261B370BB90125
:10151000330F880B990B0E94A11A20E030E048ECB1
:1015200052E40E94F7196B017C0120E03CE34CE19E
:1015300056E40E94901B181634F0C701B6010E94B1
:10154000701AAB0102C04FE057E264E0A8C120E08E
:1015500030E048EC52E4609176027091770280911D
:101560007802909179020E94F7190E94691AAB01E2
:1015700077FF04C044275527461B570B63E18FE0D4
:101580000E94B705DFC1809156028230D1F18330CD
:1015900009F43EC0813009F0D5C120E030E040E2DE
:1015A00051E46091130270911402809115029091A0
:1015B00016020E94F71920E030E040E753E40E9451
:1015C00080196B017C0120E030E0A9010E94ED1937
:1015D00087FD10C020E030E040E252E4C701B601D0
:1015E0000E94901B18164CF0C701B6010E94701A99
:1015F000AB0105C040E050E002C048E250E062E0CC
:101600009DC140910B0250910C0260E088E097C1AF
:101610004091090250910A0261E088E0B1CF81E077
:1016200096C180915602813049F0823009F08AC11A
:1016300040910D0250910E0264E006C040915402A8
:10164000509155026FE12BC187E09ACFE09156028D
:101650008E2F90E0FC013197E930F10508F072C15E
:10166000E751FF4F0C946F1C40918402509185020A
:101670006EE015C1409182025091830264E10FC176
:10168000409180025091810267E109C140917E0240
:1016900050917F0268E103C14091190250911A02F2
:1016A00057FF03C051954195510965E1F8C040913C
:1016B00017025091180257FF03C0519541955109E7
:1016C00066E1EDC040911B0250911C0257FF03C020
:1016D00051954195510969E1E2C040917C025091D8
:1016E0007D0257FF03C051954195510967E0D7C06E
:1016F00040917A0250917B0257FF03C0519541956A
:10170000510968E03CCF20915602822F6AE00E9486
:10171000631C933021F128F4913041F0923091F024
:1017200013C1943039F19930C1F10EC18091880212
:1017300090918902892B09F007C1409117025091BD
:1017400018020BC08091880290918902892B09F0C0
:10175000FBC04091190250911A0260E044C04091D0
:10176000190250911A0257FF03C051954195510932
:101770006FE095C0409117025091180257FF03C0C7
:1017800051954195510960E18FE00E94B705809124
:1017900056028C5F80935602D7C0293708F4D4C014
:1017A00040E050E067E08AE0EBCE80915602823064
:1017B00081F08330D1F0813009F0C4C0809188027B
:1017C00090918902892B09F0BFC049E150E061E0A6
:1017D0000AC08091880290918902892B09F0B4C0D7
:1017E00045E050E062E089E1AAC0809188029091D2
:1017F0008902892B09F0A8C04AE050E063E0F3CFEA
:1018000080915602813009F09DC040911B02509199
:101810001C024C348FEF580734F0453B51052CF037
:1018200044EB50E002C04CE45FEF64E0DCCF809119
:101830005602833019F158F48130A9F0823009F052
:1018400081C040915302441F4427441F51C085303A
:1018500009F1D0F0863009F075C040910B0250912B
:101860000C026EE18CCE409152025091530257FF10
:1018700003C05195419551096AE111C0409101029F
:10188000509102026BE10BC040910502509106029B
:101890006CE105C04091090250910A026DE18FE0B0
:1018A0004EC080915602833009F170F48130C1F04E
:1018B000823009F047C0409172025091730261E298
:1018C0008FE00E94B70512C08530E9F0A8F086309D
:1018D000C9F54091710281E0482750E065E00AC0F7
:1018E000409174025091750260E2D9CF409170022C
:1018F00050E062E083E123C04091700281E048271C
:1019000050E063E0F7CF4091710250E064E0F2CF25
:1019100080915602843050F48230B0F4813091F4DA
:10192000409150025091510265E008C0853061F04D
:1019300048F440914E0250914F0266E087E00E94C9
:10194000B70502C010925602809156028F5F8093B5
:101950005602ECCC0F900F90DF91CF911F910F9119
:10196000FF90EF90DF90CF90BF90AF900895CF920F
:10197000DF92EF92FF920F931F93CF93DF936C014F
:101980007A018B01C0E0D0E0CE15DF0589F0D801E7
:101990006D918D01D601ED91FC910190F081E02DCA
:1019A000C6010995892B11F47E0102C02196ECCF66
:1019B000C701DF91CF911F910F91FF90EF90DF90C2
:1019C000CF900895FC01A089B1898C91A689B7892F
:1019D00082FD0FC09C91818D8F5F8F73228D821746
:1019E00049F0218DDF01A20FB11D5D969C93818F7F
:1019F00008958C9108950E94AC1D87E294E00E94A6
:101A0000EF0121E0892B09F420E0822F089584EC76
:101A100094E00E94EF0121E0892B09F420E0822F5D
:101A200008951F920F920FB60F9211240BB60F92CA
:101A30002F933F934F935F936F937F938F939F93D6
:101A4000AF93BF93EF93FF9387E294E00E94AD02C0
:101A5000FF91EF91BF91AF919F918F917F916F9186
:101A60005F914F913F912F910F900BBE0F900FBE42
:101A70000F901F9018951F920F920FB60F9211247E
:101A80000BB60F922F933F934F935F936F937F9378
:101A90008F939F93AF93BF93EF93FF9387E294E06D
:101AA0000E94E20CFF91EF91BF91AF919F918F91B6
:101AB0007F916F915F914F913F912F910F900BBE4E
:101AC0000F900FBE0F901F9018951F920F920FB698
:101AD0000F9211240BB60F922F933F934F935F9366
:101AE0006F937F938F939F93AF93BF93EF93FF93E6
:101AF00084EC94E00E94AD02FF91EF91BF91AF9111
:101B00009F918F917F916F915F914F913F912F9115
:101B10000F900BBE0F900FBE0F901F9018951F9245
:101B20000F920FB60F9211240BB60F922F933F9383
:101B30004F935F936F937F938F939F93AF93BF93D5
:101B4000EF93FF9384EC94E00E94E20CFF91EF91FD
:101B5000BF91AF919F918F917F916F915F914F91C5
:101B60003F912F910F900BBE0F900FBE0F901F90C3
:101B70001895FC0190E08CE8615088F0519148E0A4
:101B8000752F7927292F30E035952795922F70FFF3
:101B900002C0982F92275695415091F7EDCF892F8B
:101BA00008950F931F93CF93DF93082F6091120432
:101BB00080914203909143030E94B90D182F66E073
:101BC00070E080913603909137030E94B00565E87C
:101BD00070E080913603909137030E94B0058091A8
:101BE000360390913703DC01ED91FC910190F08177
:101BF000E02D602F09958091360390913703DC0129
:101C0000ED91FC910190F081E02D60913D030995EB
:101C10006091120470911304809136039091370300
:101C20000E94B005C0E0D0E08091120490911304AE
:101C3000A0913603B0913703ED91FC911197C8172D
:101C4000D9077CF420914203309143032C0F3D1FB0
:101C500040815181F9016081CD01FA0109952196F8
:101C6000E3CF0190F081E02D612FCD010995209106
:101C7000250430912604A9014A5C5C4FFA01E05228
:101C8000FF4F00833196108331961082C90103966D
:101C90008F3091052CF4909326048093250404C082
:101CA000109226041092250410921304109212042C
:101CB00010920F0410920E0410921104109210044E
:101CC00080ECEEE4F3E0DF011D928A95E9F7DF9105
:101CD000CF911F910F910895482F70931504609331
:101CE000140420911204309113042D3B310584F526
:101CF00080910E0490910F04FC01EA5CFC4F408F30
:101D00000196803C910510F080E090E0FC01EA5CD7
:101D1000FC4F40911404408F0196803C910511F4D2
:101D200080E090E0FC01EA5CFC4F40911504408F9C
:101D30000196803C910511F480E090E090930F04AF
:101D400080930E042D5F3F4F3093130420931204B1
:101D50000895EF92FF920F931F93CF93DF9300D0DC
:101D60001F92CDB7DEB780913B03811198C080915F
:101D7000360390913703DC01ED91FC910084F185ED
:101D8000E02D099505970CF48AC080913603909157
:101D90003703DC01ED91FC910284F385E02D099578
:101DA000A0913603B09137030697A1F080914503C7
:101DB0009091460301969093460380934503ED91DD
:101DC000FC9111970084F185E02DCD0109950597CF
:101DD000E4F65BC0ED91FC9111970284F385E02D50
:101DE000CD0109958538910509F059C080913603D8
:101DF00090913703DC01ED91FC910284F385E02D95
:101E0000099580934D038091360390913703DC014F
:101E1000ED91FC910284F385E02D099580933E03BA
:101E20008091360390913703DC01ED91FC9102849F
:101E3000F385E02D099580933B0330914D0320916C
:101E40003D03321721F18091490390914A03019695
:101E500090934A038093490300E010E080913B0394
:101E600090E001968017910774F08091360390916D
:101E70003703DC01ED91FC910284F385E02D099597
:101E80000F5F1F4FEBCF10923B0380E050C29927AA
:101E900001960E947F1C90933903809338038091B0
:101EA0003B03882391F380913A038111C0C0809154
:101EB000360390913703DC01ED91FC910084F185AC
:101EC000E02D09951816190694F780913603909124
:101ED0003703DC01ED91FC910484F585E02D099533
:101EE0008F3F910509F0A3C080913603909137038D
:101EF000DC01ED91FC910084F185E02D09950497BA
:101F00009CF38091360390913703DC01ED91FC91B5
:101F10000284F385E02D09958983809136039091A1
:101F20003703DC01ED91FC910284F385E02D0995E6
:101F3000182F8A838091360390913703DC01ED914D
:101F4000FC910284F385E02D0995082F8B83809105
:101F5000360390913703DC01ED91FC910284F38507
:101F6000E02D0995F82E63E0CE0101960E94B90D8F
:101F70008F112EC080913E0360912504709126043C
:101F8000AB014A5C5C4F23E030E0FA016217730753
:101F900034F4E451FF4F9081891312C0B6C1E3526B
:101FA000FF4F908189130CC0FA01E252FF4F9081DC
:101FB000091306C0113009F4ACC1123009F4A9C1EB
:101FC0002D5F3F4F4350510922313105F1F609C0D1
:101FD0008091470390914803019690934803809322
:101FE000470310923B0310923A038091380390917B
:101FF00039030E94141D0E94A90E99C1621740F175
:10200000009138031091390381E0820F80933A03E5
:10201000020F111D8091360390913703DC01ED9181
:10202000FC910284F385E02D0995F801808380916D
:10203000360390913703DC01ED91FC910084F1852A
:10204000E02D099560913B0320913A03892BB1F66D
:10205000E62EF12C822F90E00197E816F90609F0A0
:1020600014CF0091380310913903C8010E94B90DB3
:1020700080933C03F801EE0DFF1D90818913BCC0D5
:102080004091400350914103D80180E090E02091BD
:102090003B0330E08217930744F53C9120913F03C6
:1020A0003217B0F4F801E80FF91F218120931404CE
:1020B0002281209315042C91FA01E20FF11DE20F09
:1020C000F11D2091140430911504318320830AC03E
:1020D00020914B0330914C032F5F3F4F30934C03C3
:1020E00020934B0303961396D2CF80914403882309
:1020F00009F476C08FEF898381E08A8380913A0367
:10210000080F111DF801319780818B8363E0CE01A8
:1021100001960E94B90D182F66E070E08091360399
:10212000909137030E94B00565E870E08091360316
:10213000909137030E94B005809136039091370348
:10214000DC01ED91FC910190F081E02D60913E0366
:1021500009958091360390913703DC01ED91FC9154
:102160000190F081E02D60913D03099563E070E0FE
:1021700080913603909137030E94B0056FEF70E0B5
:1021800080913603909137030E94B00561E070E0C2
:1021900080913603909137030E94B0052091360359
:1021A00030913703D901ED91FC9180913A03A091D0
:1021B0003803B0913903A80FB11D11970190F08138
:1021C000E02D6C91C90109958091360390913703F8
:1021D000DC01ED91FC910190F081E02D612F0995DA
:1021E00010923B0310923A03809138039091390387
:1021F0000E94141D81E09BC0809147039091480389
:102200000196909348038093470380914403882369
:1022100009F470C08FEF898382E08A8380818B8389
:1022200063E0CE0101960E94B90D182F66E070E0C0
:1022300080913603909137030E94B00565E870E005
:1022400080913603909137030E94B0058091360348
:1022500090913703DC01ED91FC910190F081E02D2C
:1022600060913E0309958091360390913703DC011C
:10227000ED91FC910190F081E02D60913D03099575
:1022800063E070E080913603909137030E94B005BF
:102290006FEF70E080913603909137030E94B00594
:1022A00062E070E080913603909137030E94B005A0
:1022B0002091360330913703D901ED91FC91809143
:1022C0003A03A0913803B0913903A80FB11D1197BB
:1022D0000190F081E02D6C91C90109958091360340
:1022E00090913703DC01ED91FC910190F081E02D9C
:1022F000612F099510923B0310923A0380913803A5
:10230000909139030E94141DC0CDFA01E351FF4F93
:102310004ECECB01821B930BFC01621773071CF49A
:10232000E95DFB4F02C0E85EFB4F10835ACE0F9071
:102330000F900F90DF91CF911F910F91FF90EF9031
:1023400008950F931F93CF93DF938C01EB0165E00A
:1023500070E080E00E946C0EB80181E00E946C0E7B
:10236000BE0182E00E946C0E61E070E083E00E949A
:102370006C0E82E0DF91CF911F910F910C94D10DE3
:10238000789484B5826084BD84B5816084BD85B550
:10239000826085BD85B5816085BD80916E0081605C
:1023A00080936E0010928100809181008260809302
:1023B0008100809181008160809381008091800004
:1023C0008160809380008091B10084608093B1002F
:1023D0008091B00081608093B00080919100826014
:1023E0008093910080919100816080939100809111
:1023F00090008160809390008091A1008260809322
:10240000A1008091A10081608093A1008091A00033
:1024100081608093A00080912101826080932101DE
:102420008091210181608093210180912001816050
:102430008093200180917A00846080937A0080915B
:102440007A00826080937A0080917A008160809324
:102450007A0080917A00806880937A001092C1009F
:10246000E0913704F091380422E02083E0913304B6
:10247000F09134041082E0913504F091360487E045
:10248000808310923F04E0913B04F0913C0496E07D
:102490009083E0913904F0913A04808180618083D7
:1024A000E0913904F0913A04808188608083E09162
:1024B0003904F0913A04808180688083E091390486
:1024C000F0913A0480818F7D8083E091D404F09173
:1024D000D5042083E091D004F091D1041082E091E2
:1024E000D204F091D30480E180831092DC04E09167
:1024F000D804F091D9049083E091D604F091D704E8
:10250000808180618083E091D604F091D70480813E
:1025100088608083E091D604F091D7048081806840
:102520008083E091D604F091D70480818F7D8083F1
:1025300084EB92E0909341038093400385E0809385
:102540003D0384EC94E0909337038093360382E359
:1025500080933F038EE493E0909343038093420380
:1025600010924403109246031092450360E085E404
:102570000E94900361E08DE00E94900361E081E29F
:102580000E94900361E084E20E94900360E081E495
:102590000E94900360E080E40E94900360E082E487
:1025A0000E94900360E083E40E94900360E088E36F
:1025B0000E94900360E087E30E94900360E08DE159
:1025C0000E94900360E08CE10E94900360E089E14A
:1025D0000E94900360E088E10E94900360E08BE13C
:1025E0000E94900360E08AE10E94900361E084E42D
:1025F0000E94900360E081E20E94600360E084E258
:102600000E94600361E08DE00E94600368EB7BE064
:1026100080E090E00E94EB0304E610E00E94C70413
:1026200001501109D9F70E94C70420E030E040EAC8
:1026300051E40E94ED1987FD0FC081E080933503BE
:1026400041E050E065E08AE00E94B70564EC79E083
:1026500080E090E00E94EB0361E08DE00E94600367
:1026600064EF71E080E090E00E94EB0360E08DE0B9
:102670000E94600364EF71E080E090E00E94EB0351
:1026800061E08DE00E946003212C82E0382EC1E0E1
:1026900088248A94912C82E40E94CC038C0190932C
:1026A00093028093920283E40E94CC039093910260
:1026B000809390020B5D11400B34110520F4309291
:1026C0009302209292028B5D91408B34910520F40D
:1026D000309291022092900287E30E94CC038230D4
:1026E000910514F482E090E090938F0280938E0223
:1026F00010928D0210928C0210928B0210928A021C
:10270000A0918E02B0918F02CD01B7FF04C088273F
:1027100099278A1B9B0B089794F0B0938D02A09386
:102720008C022AE530E00E94781C2FEF33E040E075
:1027300050E00E94251930938B0220938A02009169
:1027400092021091930212501093930200939202FE
:10275000A0909002B090910292E0B91AB0929102CA
:10276000A092900240908A0250908B02CC24DD24EB
:10277000C418D5080D2C000CEE08FF08052C000C21
:10278000660877084C185D086E087F0898012A0DC6
:102790003B1DC901330FAA0BBB0B9C01AD013E5F72
:1027A0004F4F5F4FC301B2010E94531C20E034E041
:1027B00040E050E00E942519DA01C9018C0D9D1DF1
:1027C000AE1DBF1D909319038093180398012A1919
:1027D0003B09C901330FAA0BBB0B9C01AD013E5F46
:1027E0004F4F5F4FC301B2010E94531C20E034E001
:1027F00040E050E00E942519DA01C9018C0D9D1DB1
:10280000AE1DBF1D90931B0380931A0385E40E94A5
:10281000370321E0892B09F020E020931F038DE18D
:102820000E943703892B31F089E10E943703892BFD
:1028300009F081C3AEEFB0E0B0931D03A0931C0379
:102840008BE10E943703892BA1F410921903109297
:10285000180310921B0310921A0390921D0380928A
:102860001C038091880290918902892B11F00E94AB
:1028700079058091B2029091B302892B61F4809125
:10288000880290918902892B31F089E795E00E94B6
:102890009504811162C300916A0210916B020115C7
:1028A0001105E9F18091880290918902892BB9F58F
:1028B0001093890200938802E0906602F09067020C
:1028C000F0928702E092860220911F0330E040914F
:1028D0001C0350911D0360911A0370911B0380919A
:1028E0001803909119030E94230580916A02909128
:1028F0006B029093B3028093B20210926B0210921B
:102900006A02109267021092660289E795E00E94BF
:10291000850410921D0285EB95E00E9485048AE1F2
:102920000E943703892B11F00E947905F0901F0354
:102930006F2D8DE00E94600380911E03811107C0FE
:1029400081E995E00E949504811107C03BC089EAA6
:1029500095E00E949504882399F3009188021091D4
:1029600089020115110551F08DE00E94370361E0E5
:10297000892B09F060E08DE00E946003809186025F
:10298000909187022F2D30E040911C0350911D0340
:1029900060911A0370911B037C0180911803909140
:1029A00019030E94230580911E03882309F4F2C2B3
:1029B00010921E0389EA95E00E94850481E995E062
:1029C0000E9485048DE995E00E949504882309F40E
:1029D00078C10E94A90E882309F46FC18091B402C6
:1029E0009091B5028330910509F4A7C024F40197B2
:1029F00009F4DAC05DC18430910561F0069709F0F1
:102A000057C18091D2029091D30290930E0280938D
:102A10000D024EC1C0931E0310921E0281E995E083
:102A20000E94850489EA95E00E94850481EC95E086
:102A30000E94850485EB95E00E9495048111ADC24A
:102A400080911D028111A9C28091BC029091BD02AA
:102A500090931C0280931B028091BE029091BF0252
:102A600090931A02809319028091C0029091C10242
:102A700090931802809317028091E0029091E102F6
:102A800090938502809384028091E2029091E30208
:102A900090938302809382020091E4021091E502F8
:102AA00010938102009380026091E6027091E70228
:102AB00070937F0260937E02072E000C880B990BA7
:102AC0000E94A11A6B017C01B801110F880B990BB0
:102AD0000E94A11A2BED3FE049E450E40E94951BAF
:102AE00020E030E044E353E40E94F7192B013C015D
:102AF0000E94F2199B01AC01C701B6010E94951B0F
:102B000020E030E84BE354E40E9481190E94691AE6
:102B100070937D0260937C02C301B2010E94021C8B
:102B20009B01AC01C701B6010E94951B0E94691A66
:102B300070937B0260937A02BBC06091C202709175
:102B4000C302072E000C880B990B0E94A11A6093F8
:102B500013027093140280931502909316026091F1
:102B6000C4027091C502072E000C880B990B0E94BD
:102B7000A11A60930F027093100280931102909338
:102B800012026091C6027091C702072E000C880BDA
:102B9000990B0E94A11A609376027093770280933A
:102BA00078029093790284C08091CA029091CB02FE
:102BB00090930C0280930B028091CC029091CD02F5
:102BC00090930A02809309028091CE029091CF02E5
:102BD0009093B1028093B0028091D2029091D3027F
:102BE0009093AF028093AE028091AE029091AF02BB
:102BF000A091B002B091B1028093050290930602B9
:102C0000A0930702B09308028091D0029091D10264
:102C10009093B1028093B0028091D4029091D5023A
:102C20009093AF028093AE024091AE025091AF02FA
:102C30006091B0027091B102409301025093020280
:102C40006093030270930402909375028093740260
:102C50008091D6029091D702909373028093720272
:102C600021E08091D8029091D902892B09F420E0CB
:102C70002093AD0221E08091DA029091DB02892B52
:102C800009F420E02093AC0221E08091DE029091D3
:102C9000DF02892B09F420E02093700221E080916B
:102CA000DC029091DD02892B09F420E0209371026F
:102CB0001092B5021092B4028CCE8DE995E00E947C
:102CC00085048091880290918902892B09F0CAC0FD
:102CD00081EC95E00E949504882309F4C3C080919B
:102CE000A402811118C082E390E0A0E0B0E08093DC
:102CF000A0029093A102A093A202B093A3020E940B
:102D00002504609398027093990280939A0290939D
:102D10009B02C093A4021092190310921803109200
:102D20001B0310921A0390921D0380921C030E94B1
:102D300025040E949F1AD62EC72EB82EA92E809148
:102D40006E0290916F029093970280939602C093C7
:102D5000200288E992E00E94850410929502109268
:102D600094020E94A90E811161C010926D0210920E
:102D70006C020E94EE050E9425040E949F1A7B01AE
:102D80008C012D2D3C2D4B2D5A2D0E9480190E9417
:102D9000691A9B0177FF04C022273327261B370BB4
:102DA000293E33406CF080919402909195020196F7
:102DB0009093950280939402DE2CCF2CB02EA12EFE
:102DC00088E992E00E949504882311F18DE00E9429
:102DD000370361E0892B09F060E08DE00E94600319
:102DE0006091860270918702809188029091890299
:102DF0000E945F05E12CF12C00E010E020E030E0C3
:102E000040E050E060E070E080E090E00E94230548
:102E10008AE10E943703019711F40E9479058BEC37
:102E200097E00197F1F7C09320029BCF61E070E03B
:102E300080E090E00E94EB0381EC95E00E94850425
:102E4000C093200210926D0210926C0281EC95E00A
:102E50000E948504C0931E0310921E0281E995E032
:102E60000E94850480912102882351F08DE695E02F
:102E70000E9495049091350381119AC0911102C06E
:102E80000E94EE0580912C03811118C088EE93E01A
:102E9000A0E0B0E08093280390932903A0932A0335
:102EA000B0932B030E9425046093200370932103A9
:102EB0008093220390932303C0932C0380E293E03A
:102EC0000E94950480913503882391F10E94C704E4
:102ED00020E030E040E752E40E94ED1987FF1CC07B
:102EE000C093340381E695E00E949504882301F1A4
:102EF00080911F0241E050E0882339F06AE08AE0C7
:102F00000E94B70510921F0213C063E18AE00E947D
:102F1000B705C0931F020CC080913403882341F091
:102F200041E050E060E08AE00E94B705109234036F
:102F30000E94FB01B0CB8CE10E943703892B29F062
:102F400088E10E943703892B19F4ADEFB0E074CC0F
:102F500090921D0380921C0373CC109289021092F0
:102F60008802109287021092860260E070E080E092
:102F700090E00E945F0510926B0210926A0281EC51
:102F800095E00E94850483E090E09093690280932D
:102F9000680281CCC0931E020DCD8091B602909143
:102FA000B7029093B3028093B202C0931D024CCD3E
:102FB000992309F465CFC093200241E050E060E01E
:102FC0008AE00E94B705109221025CCFCF92DF9277
:102FD000EF92FF92CF93DF93E7E2F4E01382128245
:102FE00088EEC82E83E0D82EE12CF12CC482D58245
:102FF000E682F7828CE292E09183808325E331E0E0
:103000003587248724E331E03787268720E331E0C2
:10301000318B208B21E331E0338B228B22E331E0B3
:10302000358B248B26E331E0378B268B118E128E65
:10303000138E148EE4ECF4E013821282C482D582E3
:10304000E682F782918380838DEC90E09587848778
:103050008CEC90E09787868788EC90E0918B808B52
:1030600089EC90E0938B828B8AEC90E0958B848B3B
:103070008EEC90E0978B868B118E128E138E148EB1
:10308000C9E0D6E0C886D986EA86FB860E94250478
:10309000688379838A839B83C9EDD5E0C886D98606
:1030A000EA86FB860E942504688379838A839B8352
:1030B000CDEFD5E092E3C92ED12CE12CF12CC886BE
:1030C000D986EA86FB860E942504688379838A83F1
:1030D0009B83CDECD5E089E190E0A0E0B0E088876B
:1030E0009987AA87BB870E942504688379838A838E
:1030F0009B83C1ECD5E080ED97E0A0E0B0E088874D
:103100009987AA87BB870E942504688379838A836D
:103110009B83C1EFD5E0C886D986EA86FB860E94EC
:103120002504688379838A839B83C5EBD5E024E6F5
:10313000C22ED12CE12CF12CC886D986EA86FB86DA
:103140000E942504688379838A839B83C9EAD5E03A
:1031500084E190E0A0E0B0E088879987AA87BB87E8
:103160000E942504688379838A839B83CDE9D5E017
:1031700085E090E0A0E0B0E088879987AA87BB87C8
:103180000E942504688379838A839B83C1E9D5E003
:1031900088EC90E0A0E0B0E088879987AA87BB8799
:1031A0000E942504688379838A839B83C5EED5E0DA
:1031B000C886D986EA86FB860E94250468837983BF
:1031C0008A839B83C5E8D5E0C886D986EA86FB86D4
:1031D0000E942504688379838A839B83C9E7D5E0AD
:1031E0008AEF90E0A0E0B0E088879987AA87BB8744
:1031F0000E942504688379838A839B83CDE6D5E08A
:1032000084EC99E0A0E0B0E088879987AA87BB8723
:103210000E942504688379838A839B83C1E6D5E075
:1032200084EF91E0A0E0B0E088879987AA87BB8708
:103230000E942504688379838A839B83DF91CF91E1
:10324000FF90EF90DF90CF900895052E97FB1EF42E
:1032500000940E943C1957FD07D00E944F1907FCAB
:1032600003D04EF40C943C1950954095309521951F
:103270003F4F4F4F5F4F08959095809570956195A2
:103280007F4F8F4F9F4F08950E947119A59F900DFA
:10329000B49F900DA49F800D911D11240895A1E26B
:1032A0001A2EAA1BBB1BFD010DC0AA1FBB1FEE1FC0
:1032B000FF1FA217B307E407F50720F0A21BB30B0B
:1032C000E40BF50B661F771F881F991F1A9469F787
:1032D00060957095809590959B01AC01BD01CF01E3
:1032E0000895A29FB001B39FC001A39F700D811DDF
:1032F0001124911DB29F700D811D1124911D0895FF
:103300005058BB27AA270E9498190C94421B0E9470
:10331000091B38F00E94101B20F039F49F3F19F46C
:1033200026F40C94061B0EF4E095E7FB0C94001BAE
:10333000E92F0E94671B58F3BA17620773078407C7
:10334000950720F079F4A6F50C94891B0EF4E0950E
:103350000B2EBA2FA02D0B01B90190010C01CA014F
:10336000A0011124FF27591B99F0593F50F4503EFA
:1033700068F11A16F040A22F232F342F4427585FEC
:10338000F3CF469537952795A795F0405395C9F704
:103390007EF41F16BA0B620B730B840BBAF09150BC
:1033A000A1F0FF0FBB1F661F771F881FC2F70EC05B
:1033B000BA0F621F731F841F48F48795779567952E
:1033C000B795F7959E3F08F0B0CF9395880F08F01A
:1033D0009927EE0F9795879508950E94DC1A08F4B7
:1033E00081E008950E94191BE3950C94531B0E94E1
:1033F0000B1A0C94421B0E94101B58F00E94091BD0
:1034000040F029F45F3F29F00C94001B51110C94FB
:103410008A1B0C94061B0E94671B68F39923B1F367
:10342000552391F3951B550BBB27AA2762177307EA
:10343000840738F09F5F5F4F220F331F441FAA1F7E
:10344000A9F335D00E2E3AF0E0E832D0915050403A
:10345000E695001CCAF72BD0FE2F29D0660F771FE8
:10346000881FBB1F261737074807AB07B0E809F0CE
:10347000BB0B802DBF01FF2793585F4F3AF09E3F53
:10348000510578F00C94001B0C948A1B5F3FE4F309
:10349000983ED4F3869577956795B795F7959F5F96
:1034A000C9F7880F911D9695879597F90895E1E0E2
:1034B000660F771F881FBB1F621773078407BA0741
:1034C00020F0621B730B840BBA0BEE1F88F7E0959C
:1034D00008950E94701A6894B1110C948A1B089583
:1034E0000E946F1B88F09F5798F0B92F9927B7510A
:1034F000B0F0E1F0660F771F881F991F1AF0BA9598
:10350000C9F714C0B13091F00E94891BB1E0089551
:103510000C94891B672F782F8827B85F39F0B93F43
:10352000CCF3869577956795B395D9F73EF490954A
:103530008095709561957F4F8F4F9F4F0895E894C8
:1035400009C097FB3EF490958095709561957F4FEB
:103550008F4F9F4F9923A9F0F92F96E9BB27939599
:10356000F695879577956795B795F111F8CFFAF4A9
:10357000BB0F11F460FF1BC06F5F7F4F8F4F9F4FDA
:1035800016C0882311F096E911C0772321F09EE838
:10359000872F762F05C0662371F096E8862F70E09E
:1035A00060E02AF09A95660F771F881FDAF7880F78
:1035B0009695879597F90895990F0008550FAA0BCE
:1035C000E0E8FEEF16161706E807F907C0F0121636
:1035D0001306E407F50798F0621B730B840B950B39
:1035E00039F40A2661F0232B242B252B21F408958E
:1035F0000A2609F4A140A6958FEF811D811D08952B
:1036000097F99F6780E870E060E008959FEF80EC95
:10361000089500240A941616170618060906089538
:1036200000240A94121613061406050608950C9435
:10363000061B0E946F1BD8F3E894E0E0BB279F575E
:10364000F0F02AED3FE049EC06C0EE0FBB0F661F1D
:10365000771F881F28F0B23A62077307840728F0A3
:10366000B25A620B730B840BE3959A9572F780380C
:1036700030F49A95BB0F661F771F881FD2F79048CA
:103680000C940C1C092E0394000C11F4882352F0A6
:10369000BB0F40F4BF2B11F460FF04C06F5F7F4F7E
:1036A0008F4F9F4F0895EF93E0FF07C0A2EA2AEDE6
:1036B0003FE049EC5FEB0E9498190E94421B0F907B
:1036C000039401FC9058E4EEF1E00C94181C57FDB3
:1036D0009058440F551F59F05F3F71F04795880F80
:1036E00097FB991F61F09F3F79F087950895121617
:1036F00013061406551FF2CF4695F1DF08C01616C3
:1037000017061806991FF1CF869571056105089473
:103710000895E894BB2766277727CB0197F908958A
:103720000E94DC1A08F48FEF08950E94A81B0C94E5
:10373000421B0E94091B38F00E94101B20F09523A9
:1037400011F00C94001B0C94061B11240C948A1B82
:103750000E94671B70F3959FC1F3950F50E0551FB2
:10376000629FF001729FBB27F00DB11D639FAA27D6
:10377000F00DB11DAA1F649F6627B00DA11D661F25
:10378000829F2227B00DA11D621F739FB00DA11D46
:10379000621F839FA00D611D221F749F3327A00D00
:1037A000611D231F849F600D211D822F762F6A2F9C
:1037B00011249F5750409AF0F1F088234AF0EE0F01
:1037C000FF1FBB1F661F771F881F91505040A9F72E
:1037D0009E3F510580F00C94001B0C948A1B5F3FA8
:1037E000E4F3983ED4F3869577956795B795F7956A
:1037F000E7959F5FC1F7FE2B880F911D96958795E2
:1038000097F908959F930E94191B0F9007FCEE5F94
:103810000C94531B9F3F31F0915020F4879577957E
:103820006795B795880F911D9695879597F9089597
:103830009F938F937F936F93FF93EF939B01AC01C3
:103840000E94951BEF91FF910E942C1C2F913F919C
:103850004F915F910C94951BDF93CF931F930F9320
:10386000FF92EF92DF927B018C01689406C0DA2E02
:10387000EF010E94A81BFE01E894A59125913591C6
:1038800045915591A6F3EF010E949819FE01970109
:10389000A801DA9469F7DF90EF90FF900F911F91E4
:1038A000CF91DF910895DB018F939F930E9444197C
:1038B000BF91AF91A29F800D911DA39F900DB29FCC
:1038C000900D11240895991B79E004C0991F961753
:1038D00008F0961B881F7A95C9F780950895EE0F1A
:1038E000FF1F0024001C0BBE0790F691E02D0994E9
:1038F0000E947119B7FF0895821B930B0895CF930F
:10390000DF938230910510F482E090E0E091170699
:10391000F091180620E030E0C0E0D0E0309711F1DF
:103920004081518148175907C0F04817590761F481
:1039300082819381209719F09B838A832BC0909377
:1039400018068093170626C02115310519F0421775
:10395000530718F49A01BE01DF01EF010280F381E1
:10396000E02DDCCF2115310509F1281B390B24305E
:10397000310590F412968D919C9113976115710504
:1039800021F0FB019383828304C0909318068093F7
:103990001706FD01329644C0FD01E20FF31F81932B
:1039A0009193225031092D933C933AC020911506F2
:1039B00030911606232B41F42091240230912502E8
:1039C000309316062093150620912202309123028F
:1039D0002115310541F42DB73EB740912602509193
:1039E0002702241B350BE0911506F0911606E2170D
:1039F000F307A0F42E1B3F0B2817390778F0AC0112
:103A00004E5F5F4F2417350748F04E0F5F1F5093EE
:103A10001606409315068193919302C0E0E0F0E012
:103A2000CF01DF91CF9108950F931F93CF93DF9331
:103A3000009709F48CC0FC01329713821282009126
:103A40001706109118060115110581F420813181A6
:103A5000820F931F209115063091160628173907FB
:103A600079F5F0931606E093150671C0D80140E091
:103A700050E0AE17BF0750F412962D913C9113976A
:103A8000AD012115310509F1D901F3CF9D01DA010D
:103A90003383228360817181860F971F821793077A
:103AA00069F4EC0128813981260F371F2E5F3F4FC3
:103AB000318320838A819B8193838283452B29F4E0
:103AC000F0931806E093170642C01396FC93EE930A
:103AD0001297ED01499159919E01240F351FE2176C
:103AE000F30771F480819181840F951F02961196DE
:103AF0009C938E938281938113969C938E931297BD
:103B0000E0E0F0E0D80112968D919C911397009718
:103B100019F0F8018C01F6CF8D919C9198012E5FE0
:103B20003F4F820F931F20911506309116062817DC
:103B3000390769F4309729F4109218061092170685
:103B400002C0138212821093160600931506DF91AD
:103B5000CF911F910F91089581E090E0F8940C941B
:063B6000B11DF894FFCF37
:103B6600010F2700000F2700000F270F27E703008C
:103B7600004843008022450F005500E7030101017C
:103B8600010100001906800000000000CE02B70CFB
:0A3B9600BE011503EF01CD01E101AE
:00000001FF
